:100000000C945D000C9485000C9485000C94850084
:100010000C9485000C9485000C9485000C9485004C
:100020000C9485000C9485000C9450030C94E7020A
:100030000C9485000C9485000C9485000C9485002C
:100040000C949D020C9485000C9485000C94850002
:100050000C9485000C9485000C9485000C9485000C
:100060000C9485000C94850000000008000201003B
:100070000003040700000000000000000000000072
:10008000250028002B0000000000240027002A0083
:10009000040404040404040402020202020203032E
:1000A0000303030301020408102040800102040836
:1000B0001020010204081020720611241FBECFEF89
:1000C000D8E0DEBFCDBF11E0A0E0B1E0E8E3F1E1B0
:1000D00002C005900D92A236B107D9F722E0A2E640
:1000E000B1E001C01D92A132B207E1F710E0CDE509
:1000F000D0E004C02197FE010E948B06CC35D107C9
:10010000C9F70E947D040C949A080C940000E5ED58
:10011000F1E02091150230911602CF01855D9140EA
:100120008217930744F481918093C6008091C000A8
:1001300085FFFCCFEECF0895806480937C00809192
:100140007A00806480937A0080917A0086FDFCCFEB
:10015000809178009091790008953FB7F89480914C
:10016000D1019091D201A091D301B091D40126B5D3
:10017000A89B05C02F3F19F00196A11DB11D3FBFDF
:10018000BA2FA92F982F8827BC01CD01620F711DAE
:10019000811D911D42E0660F771F881F991F4A95A8
:1001A000D1F70895FC01E85BFF4F2081318136953E
:1001B0002795611122C031832083DC01A65BBF4FEC
:1001C0002D913C9111972F5F3F4F11963C932E93A9
:1001D0002830310588F04081FC01E05CFF4F208130
:1001E0003181B9016F5F7F4F71836083820F931FED
:1001F000FC0140831D921C9208952068DCCF1F9360
:10020000CF93DF93EC01162F60E00E94D200112300
:1002100021F060E0CE010E94D20061E0CE01DF91CA
:10022000CF911F910C94D20060E085ED91E00E9487
:10023000FF0061E085ED91E00E94FF0061E085ED47
:1002400091E00E94FF0061E085ED91E00E94FF00D7
:1002500061E085ED91E00E94FF0061E085ED91E0B5
:100260000E94FF0061E085ED91E00E94FF0060E0E8
:1002700085ED91E00C94FF00CF93DF93C82F809120
:1002800018028C27E82FEF70F0E0EE0FFF1FEF5BF6
:10029000FE4F20E0309117024081518124273527FD
:1002A00090E044E0959587954A95E1F761E870E123
:1002B000869FA001879F500D969F500D11242427E3
:1002C00035273093180220931702D8E0C7FF2DC0BE
:1002D0008091190290911A02A0911B02B0911C0208
:1002E0000196A11DB11D8093190290931A02A0934B
:1002F0001B02B0931C0261E085ED91E00E94FF00BB
:100300008C2F880F4091190250911A0260911B02A4
:1003100070911C02453051056105710530F4D150D2
:10032000C82FA1F6DF91CF91089510921902109273
:100330001A0210921B0210921C0260E0DDCF8F9215
:100340009F92AF92BF92CF92DF92EF92FF920F9364
:100350001F93CF93DF937C01B62EA42E109216022A
:1003600010921502109218021092170210921902A0
:1003700010921A0210921B0210921C0260E085ED8E
:1003800091E00E94FF0060E085ED91E00E94FF0097
:1003900060E085ED91E00E94FF0060E085ED91E076
:1003A0000E94FF000E94140180E10E943C0180E055
:1003B000A11080E10E943C0180E00E943C0100E02D
:1003C00018E0B11002C010E000E0D12CC12C912C3B
:1003D000812CD0E0C0E0CE01B1100896880F991FA3
:1003E0008E0D9F1DFC0160817181A11026C0072E1A
:1003F000000C880B990B0E94A10720E030E44CE42C
:1004000054E40E94910620E030EA4AEA54E40E9453
:10041000FE0620E030E040E055E40E942D080E94F6
:10042000700761157105D9F16F3FF7E07F0710F094
:100430006EEF77E06801C60ED71EC0FF33C0892D6E
:100440000E943C018C2D8295807F88290E943C016E
:10045000C60124E0969587952A95E1F70E943C0114
:100460002196C830D10509F0B6CF84E00E943C0146
:10047000C0911702809118020E943C018C2F0E94AB
:100480003C010E94140180911F0290912002892B4F
:1004900061F061E085ED91E00E94D200F4CF61E06F
:1004A00070E0C8CF9C2C8D2CDBCFDF91CF911F91BA
:1004B0000F91FF90EF90DF90CF90BF90AF909F9003
:1004C0008F9008951F93CF93DF93EC01162F462F43
:1004D00060E00E949F010E948700412F61E0CE01F1
:1004E0000E949F01DF91CF911F910C948700909102
:1004F0006F009F7D90936F001092620110926701D0
:1005000010926F018823B1F0809170018F5F80930A
:10051000700110927F0189E0809380011092810127
:1005200082E880938100B59A80916F008062809309
:100530006F00089510927001ECCF1F920F920FB6CA
:100540000F9211242F933F938F939F93AF93BF9359
:100550008091CD019091CE01A091CF01B091D001B9
:100560003091CC0123E0230F2D3758F50196A11DC2
:10057000B11D2093CC018093CD019093CE01A09327
:10058000CF01B093D0018091D1019091D201A0917F
:10059000D301B091D4010196A11DB11D8093D10169
:1005A0009093D201A093D301B093D401BF91AF91A6
:1005B0009F918F913F912F910F900FBE0F901F90A1
:1005C000189526E8230F0296A11DB11DD2CF1F92C8
:1005D0000F920FB60F9211242F933F934F935F9377
:1005E0008F939F93EF93FF938091B9018930D8F552
:1005F000199B24C02091880030918900E82FF0E0F9
:10060000EE0FFF1FE654FE4F2056324040815181CD
:10061000240F351F30938900209388008F5F8093CB
:10062000B901FF91EF919F918F915F914F913F9110
:100630002F910F900FBE0F901F901895811108C039
:100640008091880090918900909364018093630168
:100650008091880090918900805A9D4F90938900E5
:1006600080938800DECF199B0DC08091630190912B
:100670006401885494459093890080938800109277
:10068000B901CFCF809188009091890080599D4F0A
:10069000909389008093880081E080937E01C1CF90
:1006A0001F920F920FB60F9211242F933F934F93E7
:1006B0005F936F937F938F939F93AF93BF93EF93CA
:1006C000FF93209186003091870030936901209339
:1006D000680130936B0120936A0110926C01809144
:1006E000810086FF61C082E8809381008091620171
:1006F000882319F1109262014091710150917201A9
:10070000C901841B950B90937601809375013093FA
:1007100074012093730120917F01E22FF0E0EE0F2E
:10072000FF1FE159FE4F948B838B845C91098D36BA
:100730009240A0F081E00E947702FF91EF91BF917B
:10074000AF919F918F917F916F915F914F913F9169
:100750002F910F900FBE0F901F90189580916F01F1
:10076000811103C081E080936F0180916F0181301E
:1007700059F480917B0190917C0184589944909325
:100780006601809365010CC0823099F380918001ED
:10079000281778F74A525C4E5093660140936501E2
:1007A00081E080936201C9CF82EC80938100109236
:1007B0007D0181E080936201A901405D5C4F50930F
:1007C0006601409365018093670160916F0161113B
:1007D00009C0309372012093710130937C01209302
:1007E0007B01ABCF8091710190917201F901E81BFF
:1007F000F90BF0937801E093770130937201209325
:10080000710170917F01472F50E0DA01AA0FBB1FE1
:10081000A159BE4F9A96FC93EE939997CF01805EB3
:10082000954097FD03969595879595958795803882
:10083000AFEF9A0714F480E89FEFDA01A159BE4F99
:100840008038910514F08FE790E0DF968C93E83EB6
:1008500083E0F80708F46ECFE73DF341B0F18091F3
:100860007B0190917C01F901E81BF90BCF01F0931A
:100870007A01E093790130937C0120937B01440F4E
:10088000551FFA01EF58FE4F92A781A7148A138AC9
:10089000633091F4885C904A853B954108F04ACFDB
:1008A00010927F0181E080938101633008F045CF91
:1008B0006F5F60936F0141CF8D37964B08F03ACF51
:1008C000623071F770938001EBCF8091810180934A
:1008D0007F018A3008F02ECF90918001981708F49C
:1008E00029CF891306C01092810181E080937D0198
:1008F00024CF8F5F8093810120CF789484B582606C
:1009000084BD84B5816084BD85B5826085BD85B5B3
:10091000816085BD80916E00816080936E00109231
:1009200081008091810082608093810080918100AC
:10093000816080938100809180008160809380003D
:100940008091B10084608093B1008091B00081609B
:100950008093B00080917A00846080937A008091C7
:100960007A00826080937A0080917A00816080931F
:100970007A0080917A00806880937A001092C1009A
:1009800086B590E0909387008093860086B590E0CE
:10099000909389008093880080E48093800082E8AF
:1009A000809381001092820086B590E09093690157
:1009B0008093680190936B0180936A01ECEAF0E008
:1009C0002491E8E9F0E084918823C1F090E0880F59
:1009D000991FFC01EA57FF4FC591D491FC01E458DF
:1009E000FF4FA591B4919FB7F8943881822F8095DD
:1009F00083238883EC91E22BEC939FBF80E00E94DD
:100A00007702E1E7F0E024914DEA50E0FA013491F9
:100A100089E990E0FC0164916623D9F0222359F022
:100A2000233009F41BC108F00EC1213009F41CC1A8
:100A3000223009F41DC1E62FF0E0EE0FFF1FE4584D
:100A4000FF4FA591B4912FB7F8946C91362B3C933E
:100A50002FBFFA014491FC018491882399F090E022
:100A6000880F991FFC01EA57FF4FA591B491FC0133
:100A7000E458FF4F859194918FB7F8949C91492B3E
:100A80004C938FBF1092B901EAEBF1E08CEC91E04E
:100A900020EC3BE0219331938E179F07D9F780918B
:100AA00088009091890088549445909389008093A0
:100AB0008800B19A80916F00826080936F001092DD
:100AC000C5001092C40084EC8093C20088E080933B
:100AD000C1008FE390E09093C5008093C40008EEBE
:100AE00013E03EE2E32E31E0F32EC0E0D0E080914F
:100AF0004001882309F4D5C081E080936C01F8940B
:100B0000809184009091850090936B0180936A019D
:100B10007894F89480916C01882341F080916A0167
:100B200090916B0190936901809368017894109281
:100B30006C0180916701882389F0F89480916801A5
:100B40009091690120916501309166017894821B32
:100B5000930B911103C081E00E94770280916F0195
:100B6000833009F045C0A8E9B1E0E0E2F1E0F89493
:100B70008D919D91789497FD019695958795819398
:100B80009193EE16FF0699F780E00E949C00893C45
:100B900091050CF07AC088EE93E090933101809338
:100BA000300181E00E949C00893C91050CF070C0EE
:100BB00088EE93E0909333018093320182E00E94AB
:100BC0009C00893C91050CF066C088EE93E0909300
:100BD00035018093340183E00E949C00893C91059B
:100BE0000CF05CC088EE93E090933701809336015F
:100BF0008091400191E08927809340010E94AD00DF
:100C00004B015C0192E0492E512C612C712C0E9409
:100C1000AD00681979098A099B09683E734081050E
:100C20009105A8F328EE820E23E0921EA11CB11CB0
:100C30004A9445284628472809F44EC0412C512C97
:100C400032014394E4CF2730B1F02830D1F0243082
:100C500009F0F1CE209180002F7D03C0209180000B
:100C60002F7720938000E7CE24B52F7724BDE3CEE5
:100C700024B52F7DFBCF2091B0002F772093B000BB
:100C8000DACE2091B0002F7DF9CF80ED97E085CFAF
:100C900080ED97E08FCF80ED97E099CF80ED97E0E2
:100CA000A3CFC0906D01D0906E01C601B8010E9423
:100CB0007706892B69F461E080E091E00E9462028E
:100CC000FFEFCF1ADF0AD0926E01C0926D0190CF74
:100CD00060E080E291E0F2CF209709F408CF0E9413
:100CE000000005CF10921602109215020895AA1B5B
:100CF000BB1B51E107C0AA1FBB1FA617B70710F007
:100D0000A61BB70B881F991F5A95A9F78095909538
:100D1000BC01CD010895EE0FFF1F0590F491E02D69
:100D200009945058BB27AA270E94A9060C94F307E0
:100D30000E94E50738F00E94EC0720F039F49F3F4D
:100D400019F426F40C94E2070EF4E095E7FB0C94FA
:100D5000DC07E92F0E94040858F3BA1762077307EB
:100D60008407950720F079F4A6F50C9426080EF474
:100D7000E0950B2EBA2FA02D0B01B90190010C01AB
:100D8000CA01A0011124FF27591B99F0593F50F4C3
:100D9000503E68F11A16F040A22F232F342F44271B
:100DA000585FF3CF469537952795A795F040539513
:100DB000C9F77EF41F16BA0B620B730B840BBAF0E3
:100DC0009150A1F0FF0FBB1F661F771F881FC2F74E
:100DD0000EC0BA0F621F731F841F48F48795779562
:100DE0006795B795F7959E3F08F0B0CF9395880F1C
:100DF00008F09927EE0F9795879508950E9412079E
:100E00000C94F3070E94EC0758F00E94E50740F0AD
:100E100029F45F3F29F00C94DC0751110C9427084A
:100E20000C94E2070E94040868F39923B1F3552358
:100E300091F3951B550BBB27AA27621773078407ED
:100E400038F09F5F5F4F220F331F441FAA1FA9F383
:100E500035D00E2E3AF0E0E832D091505040E69571
:100E6000001CCAF72BD0FE2F29D0660F771F881FD2
:100E7000BB1F261737074807AB07B0E809F0BB0BC5
:100E8000802DBF01FF2793585F4F3AF09E3F5105D9
:100E900078F00C94DC070C9427085F3FE4F3983E4D
:100EA000D4F3869577956795B795F7959F5FC9F7C2
:100EB000880F911D9695879597F90895E1E0660F43
:100EC000771F881FBB1F621773078407BA0720F0BC
:100ED000621B730B840BBA0BEE1F88F7E095089525
:100EE0000E940C0888F09F5798F0B92F9927B751A6
:100EF000B0F0E1F0660F771F881F991F1AF0BA95BE
:100F0000C9F714C0B13091F00E942608B1E00895ED
:100F10000C942608672F782F8827B85F39F0B93FDF
:100F2000CCF3869577956795B395D9F73EF4909570
:100F30008095709561957F4F8F4F9F4F0895E894EE
:100F400009C097FB3EF490958095709561957F4F11
:100F50008F4F9F4F9923A9F0F92F96E9BB279395BF
:100F6000F695879577956795B795F111F8CFFAF4CF
:100F7000BB0F11F460FF1BC06F5F7F4F8F4F9F4F00
:100F800016C0882311F096E911C0772321F09EE85E
:100F9000872F762F05C0662371F096E8862F70E0C4
:100FA00060E02AF09A95660F771F881FDAF7880F9E
:100FB0009695879597F9089597F99F6780E870E06F
:100FC00060E008959FEF80EC089500240A941616BF
:100FD000170618060906089500240A941216130627
:100FE000140605060895092E0394000C11F48823B5
:100FF00052F0BB0F40F4BF2B11F460FF04C06F5FD1
:101000007F4F8F4F9F4F089557FD9058440F551FA6
:1010100059F05F3F71F04795880F97FB991F61F07A
:101020009F3F79F087950895121613061406551FF1
:10103000F2CF4695F1DF08C0161617061806991F5D
:10104000F1CF86957105610508940895E894BB2752
:1010500066277727CB0197F908950E9440080C94E2
:10106000F3070E94E50738F00E94EC0720F0952373
:1010700011F00C94DC070C94E20711240C9427085F
:101080000E94040870F3959FC1F3950F50E0551F1F
:10109000629FF001729FBB27F00DB11D639FAA27CD
:1010A000F00DB11DAA1F649F6627B00DA11D661F1C
:1010B000829F2227B00DA11D621F739FB00DA11D3D
:1010C000621F839FA00D611D221F749F3327A00DF7
:1010D000611D231F849F600D211D822F762F6A2F93
:1010E00011249F5750409AF0F1F088234AF0EE0FF8
:1010F000FF1FBB1F661F771F881F91505040A9F725
:101100009E3F510580F00C94DC070C9427085F3F4C
:10111000E4F3983ED4F3869577956795B795F79560
:10112000E7959F5FC1F7FE2B880F911D96958795D8
:0811300097F90895F894FFCF30
:1011380000000000000000000000000000000000A7
:101148000000000000000000000000000000010096
:10115800DC05DC05DC05DC05DC05DC05DC05DC057F
:10116800DC05DC05DC05DC05DC05DC05DC05DC056F
:10117800010000891112239B322446AD573665BF02
:1011880074488CC19D5AAFD3BE6CCAE5DB7EE9F7C3
:02119800F8005D
:00000001FF
