:100000000C9462000C943A030C9413030C948A0031
:100010000C948A000C948A000C948A000C948A0038
:100020000C948A000C948A000C9461030C948A004E
:100030000C948A000C948A000C948A000C948A0018
:100040000C94C9020C948A000C948A000C948A00C7
:100050000C948A000C948A000C948A000C948A00F8
:100060000C948A000C948A000000000023002600F3
:10007000290000000008000201000003040700003E
:1000800000000000000000000000250028002B00F8
:1000900000000000240027002A00040404040404D3
:1000A0000404020202020202030303030303010227
:1000B00004081020408001020408102001020408F6
:1000C0001020BC0311241FBECFEFD8E0DEBFCDBF90
:1000D00011E0A0E0B1E0E2E9FFE002C005900D927E
:1000E000A636B107D9F721E0A6E6B1E001C01D921E
:1000F000A33EB207E1F710E0C2E6D0E004C02197CA
:10010000FE010E94B805C136D107C9F70E94C60397
:100110000C94C7070C940000E3E7F1E02091B301D1
:100120003091B401CF01835791408217930744F473
:1001300081918093C6008091C00085FFFCCFEECFF7
:100140000895806480937C0080917A00806480931D
:100150007A0080917A0086FDFCCF809178009091A2
:10016000790008953FB7F89480916F0190917001E4
:10017000A0917101B091720126B5A89B05C02F3FD7
:1001800019F00196A11DB11D3FBFBA2FA92F982FBD
:100190008827BC01CD01620F711D811D911D42E0B8
:1001A000660F771F881F991F4A95D1F70895089504
:1001B000FC01E85BFF4F2081318136952795611165
:1001C00022C031832083DC01A65BBF4F2D913C917F
:1001D00011972F5F3F4F11963C932E932830310596
:1001E00088F04081FC01E05CFF4F20813181B90142
:1001F0006F5F7F4F71836083820F931FFC01408389
:100200001D921C9208952068DCCF1F93CF93DF933B
:10021000EC01162F60E00E94D800112321F060E06D
:10022000CE010E94D80061E0CE01DF91CF911F91F5
:100230000C94D80060E083E791E00E94050161E042
:1002400083E791E00E94050161E083E791E00E946D
:10025000050161E083E791E00E94050161E083E729
:1002600091E00E94050161E083E791E00E940501B1
:1002700061E083E791E00E94050160E083E791E09F
:100280000C940501CF93DF93C82F8091B6018C2782
:10029000E82FEF70F0E0EE0FFF1FEB5BFE4F20E06A
:1002A0003091B501408151812427352790E044E009
:1002B000959587954A95E1F761E870E1869FA001E1
:1002C000879F500D969F500D11242427352730937A
:1002D000B6012093B501D8E0C7FF2DC08091B701CA
:1002E0009091B801A091B901B091BA010196A11DF8
:1002F000B11D8093B7019093B801A093B901B09359
:10030000BA0161E083E791E00E9405018C2F880F1C
:100310004091B7015091B8016091B9017091BA0153
:10032000453051056105710530F4D150C82FA1F653
:10033000DF91CF9108951092B7011092B8011092F9
:10034000B9011092BA0160E0DDCF8F929F92AF9217
:10035000BF92CF92DF92EF92FF920F931F93CF93B2
:10036000DF937C01B62EC42FA22E1092B4011092FE
:10037000B3011092B6011092B5011092B70110921C
:10038000B8011092B9011092BA0160E083E791E0E0
:100390000E94050160E083E791E00E94050160E0B2
:1003A00083E791E00E94050160E083E791E00E940D
:1003B00005010E941A0180E10E94420180E0A11023
:1003C00080E18C2B0E94420180E00E94420100E00B
:1003D00018E0B11002C010E000E0D12CC12C912C2B
:1003E000812CD0E0C0E0CE01B1100896880F991F93
:1003F0008E0D9F1DFC0160817181A11026C0072E0A
:10040000000C880B990B0E94CE0620E030E44CE4EF
:1004100054E40E94BE0520E030EA4AEA54E40E9417
:100420002B0620E030E040E055E40E945A070E948D
:100430009D0661157105D9F16F3FF7E07F0710F058
:100440006EEF77E06801C60ED71EC0FF33C0892D5E
:100450000E9442018C2D8295807F88290E94420152
:10046000C60124E0969587952A95E1F70E944201FE
:100470002196C830D10509F0B6CF84E00E94420130
:10048000C091B5018091B6010E9442018C2F0E945B
:1004900042010E941A018091BD019091BE01892BF9
:1004A00061F061E083E791E00E94D800F4CF61E061
:1004B00070E0C8CF9C2C8D2CDBCFDF91CF911F91AA
:1004C0000F91FF90EF90DF90CF90BF90AF909F90F3
:1004D0008F9008950F931F93CF93DF93EC01162F06
:1004E000042F242F462F60E00E94A5010E948C005B
:1004F000202F412F61E0CE010E94A501DF91CF9115
:100500001F910F910C948C00E4E7F0E08491E0EBF4
:10051000F0E09491ECE9F0E0E491EE23A1F088237F
:1005200039F08330F9F0A0F4813011F1823021F1FB
:10053000F0E0EE0FFF1FE859FF4FA591B491EC9149
:10054000E92381E009F480E08170809367010895D8
:100550008730A9F08830C9F0843051F7809180004D
:100560008F7D03C0809180008F7780938000E0CFE3
:1005700084B58F7784BDDCCF84B58F7DFBCF809130
:10058000B0008F778093B000D3CF8091B0008F7D83
:10059000F9CF1F920F920FB60F9211242F933F9312
:1005A0008F939F93AF93BF9380916B0190916C0158
:1005B000A0916D01B0916E0130916A0123E0230F8B
:1005C0002D3758F50196A11DB11D20936A01809326
:1005D0006B0190936C01A0936D01B0936E018091BB
:1005E0006F0190917001A0917101B091720101961B
:1005F000A11DB11D80936F0190937001A0937101B3
:10060000B0937201BF91AF919F918F913F912F91C4
:100610000F900FBE0F901F90189526E8230F02969B
:10062000A11DB11DD2CF1F920F920FB60F921124B0
:100630002F933F934F935F936F937F938F939F93EA
:10064000AF93BF93EF93FF93E0910201F091030109
:100650000995FF91EF91BF91AF919F918F917F91FC
:100660006F915F914F913F912F910F900FBE0F901F
:100670001F9018951F920F920FB60F9211242F936F
:100680003F934F935F936F937F938F939F93AF931A
:10069000BF93EF93FF93E0910001F0910101099561
:1006A000FF91EF91BF91AF919F918F917F916F914A
:1006B0005F914F913F912F910F900FBE0F901F9020
:1006C00018951F920F920FB60F9211242F933F93FC
:1006D0004F938F939F93EF93FF9310928500109207
:1006E000840020918600309187008091C101909113
:1006F000C201009771F00197E9F0FF91EF919F918E
:100700008F914F913F912F910F900FBE0F901F909F
:1007100018952051374221343C4948F481E090E05B
:100720009093C2018093C10110926601E6CF1092AE
:10073000C001E3CFC9018C5D9540893B9B40C8F463
:1007400080916601E82FF0E0EE0FFF1FED53FE4FA2
:10075000318320838F5F809366019091BF0189135D
:10076000CCCF81E08093C0011092C2011092C101F0
:10077000C4CF1092C001F8CF1092B4011092B3010F
:10078000EFEBF1E01182138212820895789484B520
:10079000826084BD84B5816084BD85B5826085BD7D
:1007A00085B5816085BD80916E00816080936E000B
:1007B00010928100809181008260809381008091FD
:1007C00081008160809381008091800081608093AE
:1007D00080008091B10084608093B1008091B0006E
:1007E00081608093B00080917A00846080937A0069
:1007F00080917A00826080937A0080917A00816093
:1008000080937A0080917A00806880937A001092B9
:10081000C10087E08093BF01E6EBF0E02491E2EABB
:10082000F0E084918823C1F090E0880F991FFC01CB
:10083000E057FF4FC591D491FC01EA57FF4FA591B6
:10084000B4919FB7F8948881E22FE0958E23888336
:100850008C91E823EC939FBF1092800082E08093FC
:10086000810010928200B59A80916F00806280931F
:100870006F001092C5001092C40084EC8093C200F7
:1008800088E08093C1008FE390E09093C50080934F
:10089000C400E0EBF0E02491ECE9F0E084918823DF
:1008A000C1F090E0880F991FFC01E057FF4FC59100
:1008B000D491FC01EA57FF4FA591B4919FB7F894EA
:1008C0003881822F809583238883EC91E22BEC93EF
:1008D0009FBF84E892E09093010180930001809192
:1008E00069008C7F816080936900E89A40ED842ED6
:1008F00047E0942EA12CB12C50E0252E50E0352E4F
:1009000080914401882309F49DC08091C00188230F
:1009100009F462C0F8940091BF0110E034E2E32EC4
:1009200031E0F32ED0E0C0E0C017D1070CF5FE0196
:10093000EE0FFF1FED53FE4F20813181032E000C7F
:10094000440B550B205D374041095109A8EEB3E037
:100950000E946805A50194010E94490528513C4F59
:100960004F4F5F4FF701219331937F012196DCCFE9
:10097000789480E00E94A100893C91050CF456C057
:1009800080ED97E0909335018093340181E00E94DF
:10099000A100893C91050CF44CC080ED97E0909348
:1009A00037018093360182E00E94A100893C9105C5
:1009B0000CF442C080ED97E09093390180933801A8
:1009C00083E00E94A100893C9105CCF180ED97E085
:1009D00090933B0180933A018091440191E08927F3
:1009E000809344010E94B2002B013C0192E0C92E89
:1009F000D12CE12CF12C0E94B200641975098609F2
:100A00009709683E734081059105A8F3F8EE4F0EF3
:100A1000F3E05F1E611C711CCA94CD28CE28CF283C
:100A200089F1C12CD12C7601C394E5CF88EE93E0F7
:100A3000A9CF88EE93E0B3CF88EE93E0BDCF88EEE8
:100A400093E0C6CFC0916801D09169012091670100
:100A5000CE0168EE73E00E94A405892B39F441E0D1
:100A6000622F84E091E00E946A02B6CF40E0622FDC
:100A700084E291E00E946A022196D0936901C093BA
:100A80006801AACF2114310409F43ACF0E94000072
:100A900037CF052E97FB1EF400940E94600557FD8A
:100AA00007D00E94730507FC03D04EF40C94600538
:100AB00050954095309521953F4F4F4F5F4F08958A
:100AC00090958095709561957F4F8F4F9F4F0895BA
:100AD0000E949505A59F900DB49F900DA49F800D39
:100AE000911D11240895A1E21A2EAA1BBB1BFD0122
:100AF0000DC0AA1FBB1FEE1FFF1FA217B307E407FD
:100B0000F50720F0A21BB30BE40BF50B661F771F54
:100B1000881F991F1A9469F7609570958095909534
:100B20009B01AC01BD01CF010895A29FB001B39F0D
:100B3000C001A39F700D811D1124911DB29F700DE6
:100B4000811D1124911D0895AA1BBB1B51E107C0F3
:100B5000AA1FBB1FA617B70710F0A61BB70B881F4D
:100B6000991F5A95A9F780959095BC01CD010895DC
:100B7000EE0FFF1F0590F491E02D09945058BB270C
:100B8000AA270E94D6050C9420070E94120738F06D
:100B90000E94190720F039F49F3F19F426F40C94B1
:100BA0000F070EF4E095E7FB0C940907E92F0E946C
:100BB000310758F3BA17620773078407950720F0C7
:100BC00079F4A6F50C9453070EF4E0950B2EBA2F8A
:100BD000A02D0B01B90190010C01CA01A001112443
:100BE000FF27591B99F0593F50F4503E68F11A16EF
:100BF000F040A22F232F342F4427585FF3CF469580
:100C000037952795A795F0405395C9F77EF41F16A1
:100C1000BA0B620B730B840BBAF09150A1F0FF0F6B
:100C2000BB1F661F771F881FC2F70EC0BA0F621F57
:100C3000731F841F48F4879577956795B795F79547
:100C40009E3F08F0B0CF9395880F08F09927EE0FDC
:100C50009795879508950E943F060C9420070E945F
:100C6000190758F00E94120740F029F45F3F29F05D
:100C70000C94090751110C9454070C940F070E940F
:100C8000310768F39923B1F3552391F3951B550B65
:100C9000BB27AA2762177307840738F09F5F5F4F4F
:100CA000220F331F441FAA1FA9F335D00E2E3AF08E
:100CB000E0E832D091505040E695001CCAF72BD0A6
:100CC000FE2F29D0660F771F881FBB1F26173707F7
:100CD0004807AB07B0E809F0BB0B802DBF01FF2729
:100CE00093585F4F3AF09E3F510578F00C940907F6
:100CF0000C9454075F3FE4F3983ED4F386957795C0
:100D00006795B795F7959F5FC9F7880F911D9695E1
:100D1000879597F90895E1E0660F771F881FBB1F3D
:100D2000621773078407BA0720F0621B730B840BEA
:100D3000BA0BEE1F88F7E09508950E94390788F0F6
:100D40009F5798F0B92F9927B751B0F0E1F0660F8F
:100D5000771F881F991F1AF0BA95C9F714C0B130D0
:100D600091F00E945307B1E008950C945307672F48
:100D7000782F8827B85F39F0B93FCCF386957795FF
:100D80006795B395D9F73EF49095809570956195E8
:100D90007F4F8F4F9F4F0895E89409C097FB3EF413
:100DA00090958095709561957F4F8F4F9F4F9923B8
:100DB000A9F0F92F96E9BB279395F6958795779536
:100DC0006795B795F111F8CFFAF4BB0F11F460FFF6
:100DD0001BC06F5F7F4F8F4F9F4F16C0882311F04E
:100DE00096E911C0772321F09EE8872F762F05C062
:100DF000662371F096E8862F70E060E02AF09A95FD
:100E0000660F771F881FDAF7880F9695879597F9F1
:100E1000089597F99F6780E870E060E008959FEF7C
:100E200080EC089500240A94161617061806090681
:100E3000089500240A941216130614060506089550
:100E4000092E0394000C11F4882352F0BB0F40F4D8
:100E5000BF2B11F460FF04C06F5F7F4F8F4F9F4F18
:100E6000089557FD9058440F551F59F05F3F71F09A
:100E70004795880F97FB991F61F09F3F79F0879501
:100E80000895121613061406551FF2CF4695F1DF8A
:100E900008C0161617061806991FF1CF869571051A
:100EA000610508940895E894BB2766277727CB014E
:100EB00097F908950E946D070C9420070E9412076D
:100EC00038F00E94190720F0952311F00C940907BF
:100ED0000C940F0711240C9454070E94310770F3EF
:100EE000959FC1F3950F50E0551F629FF001729FCF
:100EF000BB27F00DB11D639FAA27F00DB11DAA1FDE
:100F0000649F6627B00DA11D661F829F2227B00D2A
:100F1000A11D621F739FB00DA11D621F839FA00DB5
:100F2000611D221F749F3327A00D611D231F849F05
:100F3000600D211D822F762F6A2F11249F5750405C
:100F40009AF0F1F088234AF0EE0FFF1FBB1F661FD7
:100F5000771F881F91505040A9F79E3F510580F0A0
:100F60000C9409070C9454075F3FE4F3983ED4F3C4
:100F7000869577956795B795F795E7959F5FC1F744
:100F8000FE2B880F911D9695879597F90895F894F3
:020F9000FFCF91
:100F9200D700D700000000000000000000000000A1
:100FA200000000000000000000000000000000003F
:100FB20000000100DC05DC05DC05DC05DC05DC05E8
:100FC200DC05DC05DC05DC05DC05DC05DC05DC0517
:100FD200DC05DC05010000891112239B322446AD99
:100FE200573665BF74488CC19D5AAFD3BE6CCAE5F3
:060FF200DB7EE9F7F800C8
:00000001FF
