:100000000C945D000C9485000C9485000C94850084
:100010000C9485000C9485000C9485000C9485004C
:100020000C9485000C9485000C942F030C94C6024C
:100030000C9485000C9485000C9485000C9485002C
:100040000C947C020C9485000C9485000C94850023
:100050000C9485000C9485000C9485000C9485000C
:100060000C9485000C94850000000008000201003B
:100070000003040700000000000000000000000072
:10008000250028002B0000000000240027002A0083
:10009000040404040404040402020202020203032E
:1000A0000303030301020408102040800102040836
:1000B00010200102040810203C0611241FBECFEFBF
:1000C000D8E0DEBFCDBF11E0A0E0B1E0E4EAF0E1AE
:1000D00002C005900D92A232B107D9F721E0A2E249
:1000E000B1E001C01D92AF3FB207E1F710E0CDE5EE
:1000F000D0E004C02197FE010E944106CC35D10713
:10010000C9F70E945C040C9450080C940000E3EBC7
:10011000F1E02091F3013091F401CF01835B914034
:100120008217930744F481918093C6008091C000A8
:1001300085FFFCCFEECF0895806480937C00809192
:100140007A00806480937A0080917A0086FDFCCFEB
:10015000809178009091790008953FB7F89480914C
:100160008F0190919001A0919101B091920126B5DB
:10017000A89B05C02F3F19F00196A11DB11D3FBFDF
:10018000BA2FA92F982F8827BC01CD01620F711DAE
:10019000811D911D42E0660F771F881F991F4A95A8
:1001A000D1F70895FC01E85BFF4F2081318136953E
:1001B0002795611122C031832083DC01A65BBF4FEC
:1001C0002D913C9111972F5F3F4F11963C932E93A9
:1001D0002830310588F04081FC01E05CFF4F208130
:1001E0003181B9016F5F7F4F71836083820F931FED
:1001F000FC0140831D921C9208952068DCCF1F9360
:10020000CF93DF93EC01162F60E00E94D200112300
:1002100021F060E0CE010E94D20061E0CE01DF91CA
:10022000CF911F910C94D20060E083EB91E00E948B
:10023000FF0061E083EB91E00E94FF0061E083EB4F
:1002400091E00E94FF0061E083EB91E00E94FF00DB
:1002500061E083EB91E00E94FF0061E083EB91E0BD
:100260000E94FF0061E083EB91E00E94FF0060E0EC
:1002700083EB91E00C94FF00CF93DF93C82F809124
:10028000F6018C27E82FEF70F0E0EE0FFF1FEF5F15
:10029000FE4F20E03091F501408151812427352720
:1002A00090E044E0959587954A95E1F761E870E123
:1002B000869FA001879F500D969F500D11242427E3
:1002C00035273093F6012093F501D8E0C7FF2DC004
:1002D0008091F7019091F801A091F901B091FA0194
:1002E0000196A11DB11D8093F7019093F801A09391
:1002F000F901B093FA0161E083EB91E00E94FF0005
:100300008C2F880F4091F7015091F8016091F9010D
:100310007091FA01453051056105710530F4D150F5
:10032000C82FA1F6DF91CF9108951092F701109296
:10033000F8011092F9011092FA0160E0DDCFBF924E
:10034000CF92DF92EF92FF920F931F93CF93DF93A1
:10035000D82E1092F4011092F3011092F60110922F
:10036000F5011092F7011092F8011092F901109224
:10037000FA0160E083EB91E00E94FF0060E083EB14
:1003800091E00E94FF0060E083EB91E00E94FF009B
:1003900060E083EB91E00E94FF000E94140180E185
:1003A0000E943C0180E00E943C0180E00E943C01F0
:1003B000E12C48E0F42ED11002C0F12CE12CC12C2C
:1003C000B12C10E000E0C801D1100896880F991FE9
:1003D0008D569E4FFC0160817181072E000C880BA9
:1003E000990B0E94570720E030E44CE454E40E944B
:1003F000470620E030EA4AEA54E40E94B40620E0CE
:1004000030E040E055E40E94E3070E9426076115B2
:100410007105E1F16115F8E07F0710F06FEF77E00B
:10042000E701C60FD71F00FF34C08C2D0E943C018E
:100430008C2F8295807F8B290E943C01CE0124E085
:10044000969587952A95E1F70E943C010F5F1F4F13
:100450000830110509F0B7CF84E00E943C01C0913B
:10046000F5018091F6010E943C018C2F0E943C0115
:100470000E9414018091FD019091FE01892B61F091
:1004800061E083EB91E00E94D200F4CF61E070E084
:10049000C7CFCC2EBD2EDACFDF91CF911F910F9118
:1004A000FF90EF90DF90CF90BF90089590916F00F4
:1004B0009F7D90936F00109222011092270110925D
:1004C0002D018823B1F080912E018F5F80932E0142
:1004D00010923D0189E080933E0110923F0182E835
:1004E00080938100B59A80916F00806280936F0045
:1004F000089510922E01ECCF1F920F920FB60F921B
:1005000011242F933F938F939F93AF93BF93809129
:100510008B0190918C01A0918D01B0918E01309151
:100520008A0123E0230F2D3758F50196A11DB11D37
:1005300020938A0180938B0190938C01A0938D016D
:10054000B0938E0180918F0190919001A0919101C3
:10055000B09192010196A11DB11D80938F019093DE
:100560009001A0939101B0939201BF91AF919F919F
:100570008F913F912F910F900FBE0F901F90189564
:1005800026E8230F0296A11DB11DD2CF1F920F9214
:100590000FB60F9211242F933F934F935F938F9336
:1005A0009F93EF93FF93809177018930D8F5199B42
:1005B00024C02091880030918900E82FF0E0EE0FF0
:1005C000FF1FE858FE4F2056324040815181240FD2
:1005D000351F30938900209388008F5F80937701C7
:1005E000FF91EF919F918F915F914F913F912F914B
:1005F0000F900FBE0F901F901895811108C0809129
:100600008800909189009093240180932301809128
:10061000880090918900805A9D4F90938900809323
:100620008800DECF199B0DC0809123019091240199
:1006300088549445909389008093880010927701A4
:10064000CFCF809188009091890080599D4F9093E1
:1006500089008093880081E080933C01C1CF1F9284
:100660000F920FB60F9211242F933F934F935F93E6
:100670006F937F938F939F93AF93BF93EF93FF936A
:100680002091860030918700309329012093280122
:1006900030932B0120932A0110922C01809181002C
:1006A00086FF61C082E880938100809122018823C7
:1006B00019F11092220140912F0150913001C9018E
:1006C000841B950B90933401809333013093320156
:1006D0002093310120913D01E22FF0E0EE0FFF1F4A
:1006E000E35DFE4F948B838B845C91098D36924041
:1006F000A0F081E00E945602FF91EF91BF91AF916F
:100700009F918F917F916F915F914F913F912F9129
:100710000F900FBE0F901F90189580912D018111A1
:1007200003C081E080932D0180912D01813059F427
:100730008091390190913A0184589944909326010F
:10074000809325010CC0823099F380913E012817D7
:1007500078F74A525C4E509326014093250181E080
:1007600080932201C9CF82EC8093810010923B01DB
:1007700081E080932201A901405D5C4F50932601E6
:10078000409325018093270160912D01611109C0DB
:100790003093300120932F0130933A012093390197
:1007A000ABCF80912F0190913001F901E81BF90B3B
:1007B000F0933601E09335013093300120932F01FF
:1007C00070913D01472F50E0DA01AA0FBB1FA35DD6
:1007D000BE4F9A96FC93EE939997CF01805E954019
:1007E00097FD039695958795959587958038AFEFFA
:1007F0009A0714F480E89FEFDA01A35DBE4F8038BA
:10080000910514F08FE790E0DF968C93E83E83E04B
:10081000F80708F46ECFE73DF341B0F1809139015C
:1008200090913A01F901E81BF90BCF01F0933801DF
:10083000E093370130933A0120933901440F551F5B
:10084000FA01E15DFE4F92A781A7148A138A6330F3
:1008500091F4885C904A853B954108F04ACF10920C
:100860003D0181E080933F01633008F045CF6F5F29
:1008700060932D0141CF8D37964B08F03ACF62300F
:1008800071F770933E01EBCF80913F0180933D0162
:100890008A3008F02ECF90913E01981708F429CFA6
:1008A000891306C010923F0181E080933B0124CF61
:1008B0008F5F80933F0120CF789484B5826084BDA0
:1008C00084B5816084BD85B5826085BD85B5816054
:1008D00085BD80916E00816080936E0010928100D2
:1008E000809181008260809381008091810081608D
:1008F000809381008091800081608093800080914E
:10090000B10084608093B1008091B00081608093D9
:10091000B00080917A00846080937A0080917A00A0
:10092000826080937A0080917A00816080937A005F
:1009300080917A00806880937A001092C10086B519
:1009400090E0909387008093860086B590E0909326
:1009500089008093880080E48093800082E88093FF
:1009600081001092820086B590E0909329018093D7
:10097000280190932B0180932A01ECEAF0E0249166
:10098000E8E9F0E084918823C1F090E0880F991F96
:10099000FC01EA57FF4FC591D491FC01E458FF4F89
:1009A000A591B4919FB7F8943881822F80958323C5
:1009B0008883EC91E22BEC939FBF80E00E9456026B
:1009C000E1E7F0E024914DEA50E0FA01349189E941
:1009D00090E0FC0164916623D9F0222359F0233082
:1009E00009F416C108F009C1213009F417C12230F9
:1009F00009F418C1E62FF0E0EE0FFF1FE458FF4F97
:100A0000A591B4912FB7F8946C91362B3C932FBFDE
:100A1000FA014491FC018491882399F090E0880FB9
:100A2000991FFC01EA57FF4FA591B491FC01E458CE
:100A3000FF4F859194918FB7F8949C91492B4C93DB
:100A40008FBF10927701E8E7F1E08AE891E020ECAF
:100A50003BE0219331938E179F07D9F7809188004F
:100A600090918900885494459093890080938800E0
:100A7000B19A80916F00826080936F001092C500E0
:100A80001092C40084EC8093C20088E08093C1007F
:100A90008FE390E09093C5008093C40001EA11E0D9
:100AA000C0E0D0E080910001882309F4D4C081E047
:100AB00080932C01F894809184009091850090930C
:100AC0002B0180932A017894F89480912C0188233B
:100AD00041F080912A0190912B01909329018093FC
:100AE0002801789410922C0180912701882389F0A5
:100AF000F89480912801909129012091250130914D
:100B000026017894821B930B911103C081E00E940F
:100B1000560280912D01833009F045C0A6E5B1E071
:100B2000E3E9F1E0F8948D919D91789497FD019619
:100B300095958795819391930E171F0799F780E0FC
:100B40000E949C00893C91050CF079C088EE93E0EE
:100B50009093A4018093A30181E00E949C00893CB2
:100B600091050CF06FC088EE93E09093A6018093FE
:100B7000A50182E00E949C00893C91050CF065C0B3
:100B800088EE93E09093A8018093A70183E00E94F0
:100B90009C00893C91050CF05BC088EE93E090933B
:100BA000AA018093A9018091000191E08927809397
:100BB00000010E94AD006B017C0192E0892E912C16
:100BC000A12CB12C0E94AD006C197D098E099F09E2
:100BD000683E734081059105A8F3F8EECF0EF3E06F
:100BE000DF1EE11CF11C8A9489288A288B28F1F1E8
:100BF000812C912C54018394E5CF2730B1F028301B
:100C0000D1F0243009F0F6CE209180002F7D03C072
:100C1000209180002F7720938000ECCE24B52F7791
:100C200024BDE8CE24B52F7DFBCF2091B0002F77D7
:100C30002093B000DFCE2091B0002F7DF9CF80ED62
:100C400097E086CF80ED97E090CF80ED97E09ACF48
:100C500080ED97E0A4CF80E00E949F010E94870072
:100C600081E00E949F010E9487009DCF209709F498
:100C700019CF0E94000016CF1092F4011092F301D8
:100C80000895EE0FFF1F0590F491E02D0994505840
:100C9000BB27AA270E945F060C94A9070E949B0706
:100CA00038F00E94A20720F039F49F3F19F426F48F
:100CB0000C9498070EF4E095E7FB0C949207E92F4B
:100CC0000E94BA0758F3BA1762077307840795079B
:100CD00020F079F4A6F50C94DC070EF4E0950B2EC9
:100CE000BA2FA02D0B01B90190010C01CA01A0017E
:100CF0001124FF27591B99F0593F50F4503E68F1D9
:100D00001A16F040A22F232F342F4427585FF3CF19
:100D1000469537952795A795F0405395C9F77EF4EA
:100D20001F16BA0B620B730B840BBAF09150A1F033
:100D3000FF0FBB1F661F771F881FC2F70EC0BA0FB9
:100D4000621F731F841F48F4879577956795B79541
:100D5000F7959E3F08F0B0CF9395880F08F099273C
:100D6000EE0F9795879508950E94C8060C94A907E1
:100D70000E94A20758F00E949B0740F029F45F3FB1
:100D800029F00C94920751110C94DD070C949807EC
:100D90000E94BA0768F39923B1F3552391F3951B89
:100DA000550BBB27AA2762177307840738F09F5F8C
:100DB0005F4F220F331F441FAA1FA9F335D00E2EF9
:100DC0003AF0E0E832D091505040E695001CCAF766
:100DD0002BD0FE2F29D0660F771F881FBB1F261729
:100DE00037074807AB07B0E809F0BB0B802DBF0100
:100DF000FF2793585F4F3AF09E3F510578F00C94CF
:100E000092070C94DD075F3FE4F3983ED4F3869598
:100E100077956795B795F7959F5FC9F7880F911DEF
:100E20009695879597F90895E1E0660F771F881FDB
:100E3000BB1F621773078407BA0720F0621B730B8E
:100E4000840BBA0BEE1F88F7E09508950E94C20745
:100E500088F09F5798F0B92F9927B751B0F0E1F07B
:100E6000660F771F881F991F1AF0BA95C9F714C02B
:100E7000B13091F00E94DC07B1E008950C94DC07DA
:100E8000672F782F8827B85F39F0B93FCCF3869564
:100E900077956795B395D9F73EF4909580957095C1
:100EA00061957F4F8F4F9F4F0895E89409C097FB3E
:100EB0003EF490958095709561957F4F8F4F9F4F31
:100EC0009923A9F0F92F96E9BB279395F695879575
:100ED00077956795B795F111F8CFFAF4BB0F11F438
:100EE00060FF1BC06F5F7F4F8F4F9F4F16C08823DF
:100EF00011F096E911C0772321F09EE8872F762F15
:100F000005C0662371F096E8862F70E060E02AF055
:100F10009A95660F771F881FDAF7880F9695879541
:100F200097F9089597F99F6780E870E060E0089569
:100F30009FEF80EC089500240A94161617061806F1
:100F40000906089500240A941216130614060506CD
:100F50000895092E0394000C11F4882352F0BB0F5E
:100F600040F4BF2B11F460FF04C06F5F7F4F8F4FC1
:100F70009F4F089557FD9058440F551F59F05F3FFC
:100F800071F04795880F97FB991F61F09F3F79F0AB
:100F900087950895121613061406551FF2CF46952D
:100FA000F1DF08C0161617061806991FF1CF8695AF
:100FB0007105610508940895E894BB276627772793
:100FC000CB0197F908950E94F6070C94A9070E9497
:100FD0009B0738F00E94A20720F0952311F00C9493
:100FE00092070C94980711240C94DD070E94BA070D
:100FF00070F3959FC1F3950F50E0551F629FF0016C
:10100000729FBB27F00DB11D639FAA27F00DB11D84
:10101000AA1F649F6627B00DA11D661F829F22270D
:10102000B00DA11D621F739FB00DA11D621F839F94
:10103000A00D611D221F749F3327A00D611D231F6A
:10104000849F600D211D822F762F6A2F11249F57B8
:1010500050409AF0F1F088234AF0EE0FFF1FBB1FBB
:10106000661F771F881F91505040A9F79E3F51057A
:1010700080F00C9492070C94DD075F3FE4F3983EF8
:10108000D4F3869577956795B795F795E7959F5F24
:10109000C1F7FE2B880F911D9695879597F90895B6
:0410A000F894FFCFF2
:1010A400010000891112239B322446AD573665BFD7
:1010B40074488CC19D5AAFD3BE6CCAE5DB7EE9F798
:0210C400F80032
:00000001FF
